{
  "contractName": "Block",
  "abi": [
    {
      "inputs": [
        {
          "internalType": "string",
          "name": "_functionality",
          "type": "string"
        },
        {
          "internalType": "string",
          "name": "_os",
          "type": "string"
        },
        {
          "internalType": "string",
          "name": "_language",
          "type": "string"
        },
        {
          "internalType": "string",
          "name": "_domain",
          "type": "string"
        },
        {
          "internalType": "string",
          "name": "_component",
          "type": "string"
        },
        {
          "internalType": "bytes32",
          "name": "_hash",
          "type": "bytes32"
        }
      ],
      "name": "addDataElement",
      "outputs": [],
      "stateMutability": "nonpayable",
      "type": "function"
    },
    {
      "inputs": [
        {
          "internalType": "uint256",
          "name": "_blockNumber",
          "type": "uint256"
        }
      ],
      "name": "getDataElement",
      "outputs": [
        {
          "internalType": "string",
          "name": "",
          "type": "string"
        },
        {
          "internalType": "string",
          "name": "",
          "type": "string"
        },
        {
          "internalType": "string",
          "name": "",
          "type": "string"
        },
        {
          "internalType": "string",
          "name": "",
          "type": "string"
        },
        {
          "internalType": "string",
          "name": "",
          "type": "string"
        },
        {
          "internalType": "bytes32",
          "name": "",
          "type": "bytes32"
        }
      ],
      "stateMutability": "view",
      "type": "function"
    },
    {
      "inputs": [],
      "name": "getNumBlocks",
      "outputs": [
        {
          "internalType": "uint256",
          "name": "",
          "type": "uint256"
        }
      ],
      "stateMutability": "view",
      "type": "function"
    }
  ],
  "bytecode": "0x6080604052600060015534801561001557600080fd5b50610cb6806100256000396000f3fe608060405234801561001057600080fd5b50600436106100415760003560e01c80633be7776a146100465780639a7bf71f14610064578063df5054c814610099575b600080fd5b61004e6100b5565b60405161005b91906104fc565b60405180910390f35b61007e60048036038101906100799190610557565b6100bf565b6040516100909695949392919061062d565b60405180910390f35b6100b360048036038101906100ae9190610812565b610401565b005b6000600154905090565b60608060608060606000806000808981526020019081526020016000206040518060c00160405290816000820180546100f79061095a565b80601f01602080910402602001604051908101604052809291908181526020018280546101239061095a565b80156101705780601f1061014557610100808354040283529160200191610170565b820191906000526020600020905b81548152906001019060200180831161015357829003601f168201915b505050505081526020016001820180546101899061095a565b80601f01602080910402602001604051908101604052809291908181526020018280546101b59061095a565b80156102025780601f106101d757610100808354040283529160200191610202565b820191906000526020600020905b8154815290600101906020018083116101e557829003601f168201915b5050505050815260200160028201805461021b9061095a565b80601f01602080910402602001604051908101604052809291908181526020018280546102479061095a565b80156102945780601f1061026957610100808354040283529160200191610294565b820191906000526020600020905b81548152906001019060200180831161027757829003601f168201915b505050505081526020016003820180546102ad9061095a565b80601f01602080910402602001604051908101604052809291908181526020018280546102d99061095a565b80156103265780601f106102fb57610100808354040283529160200191610326565b820191906000526020600020905b81548152906001019060200180831161030957829003601f168201915b5050505050815260200160048201805461033f9061095a565b80601f016020809104026020016040519081016040528092919081815260200182805461036b9061095a565b80156103b85780601f1061038d576101008083540402835291602001916103b8565b820191906000526020600020905b81548152906001019060200180831161039b57829003601f168201915b505050505081526020016005820154815250509050806000015181602001518260400151836060015184608001518560a001519650965096509650965096505091939550919395565b60006040518060c00160405280888152602001878152602001868152602001858152602001848152602001838152509050806000806001548152602001908152602001600020600082015181600001908161045c9190610b37565b5060208201518160010190816104729190610b37565b5060408201518160020190816104889190610b37565b50606082015181600301908161049e9190610b37565b5060808201518160040190816104b49190610b37565b5060a08201518160050155905050600160008154809291906104d590610c38565b919050555050505050505050565b6000819050919050565b6104f6816104e3565b82525050565b600060208201905061051160008301846104ed565b92915050565b6000604051905090565b600080fd5b600080fd5b610534816104e3565b811461053f57600080fd5b50565b6000813590506105518161052b565b92915050565b60006020828403121561056d5761056c610521565b5b600061057b84828501610542565b91505092915050565b600081519050919050565b600082825260208201905092915050565b60005b838110156105be5780820151818401526020810190506105a3565b60008484015250505050565b6000601f19601f8301169050919050565b60006105e682610584565b6105f0818561058f565b93506106008185602086016105a0565b610609816105ca565b840191505092915050565b6000819050919050565b61062781610614565b82525050565b600060c082019050818103600083015261064781896105db565b9050818103602083015261065b81886105db565b9050818103604083015261066f81876105db565b9050818103606083015261068381866105db565b9050818103608083015261069781856105db565b90506106a660a083018461061e565b979650505050505050565b600080fd5b600080fd5b7f4e487b7100000000000000000000000000000000000000000000000000000000600052604160045260246000fd5b6106f3826105ca565b810181811067ffffffffffffffff82111715610712576107116106bb565b5b80604052505050565b6000610725610517565b905061073182826106ea565b919050565b600067ffffffffffffffff821115610751576107506106bb565b5b61075a826105ca565b9050602081019050919050565b82818337600083830152505050565b600061078961078484610736565b61071b565b9050828152602081018484840111156107a5576107a46106b6565b5b6107b0848285610767565b509392505050565b600082601f8301126107cd576107cc6106b1565b5b81356107dd848260208601610776565b91505092915050565b6107ef81610614565b81146107fa57600080fd5b50565b60008135905061080c816107e6565b92915050565b60008060008060008060c0878903121561082f5761082e610521565b5b600087013567ffffffffffffffff81111561084d5761084c610526565b5b61085989828a016107b8565b965050602087013567ffffffffffffffff81111561087a57610879610526565b5b61088689828a016107b8565b955050604087013567ffffffffffffffff8111156108a7576108a6610526565b5b6108b389828a016107b8565b945050606087013567ffffffffffffffff8111156108d4576108d3610526565b5b6108e089828a016107b8565b935050608087013567ffffffffffffffff81111561090157610900610526565b5b61090d89828a016107b8565b92505060a061091e89828a016107fd565b9150509295509295509295565b7f4e487b7100000000000000000000000000000000000000000000000000000000600052602260045260246000fd5b6000600282049050600182168061097257607f821691505b6020821081036109855761098461092b565b5b50919050565b60008190508160005260206000209050919050565b60006020601f8301049050919050565b600082821b905092915050565b6000600883026109ed7fffffffffffffffffffffffffffffffffffffffffffffffffffffffffffffffff826109b0565b6109f786836109b0565b95508019841693508086168417925050509392505050565b6000819050919050565b6000610a34610a2f610a2a846104e3565b610a0f565b6104e3565b9050919050565b6000819050919050565b610a4e83610a19565b610a62610a5a82610a3b565b8484546109bd565b825550505050565b600090565b610a77610a6a565b610a82818484610a45565b505050565b5b81811015610aa657610a9b600082610a6f565b600181019050610a88565b5050565b601f821115610aeb57610abc8161098b565b610ac5846109a0565b81016020851015610ad4578190505b610ae8610ae0856109a0565b830182610a87565b50505b505050565b600082821c905092915050565b6000610b0e60001984600802610af0565b1980831691505092915050565b6000610b278383610afd565b9150826002028217905092915050565b610b4082610584565b67ffffffffffffffff811115610b5957610b586106bb565b5b610b63825461095a565b610b6e828285610aaa565b600060209050601f831160018114610ba15760008415610b8f578287015190505b610b998582610b1b565b865550610c01565b601f198416610baf8661098b565b60005b82811015610bd757848901518255600182019150602085019450602081019050610bb2565b86831015610bf45784890151610bf0601f891682610afd565b8355505b6001600288020188555050505b505050505050565b7f4e487b7100000000000000000000000000000000000000000000000000000000600052601160045260246000fd5b6000610c43826104e3565b91507fffffffffffffffffffffffffffffffffffffffffffffffffffffffffffffffff8203610c7557610c74610c09565b5b60018201905091905056fea2646970667358221220e1c02d1d66dcc7245b2ee6c4e1dcb0f35dca3d5075109d6614f7a1140a19debc64736f6c63430008130033",
  "immutableReferences": {},
  "source": "// SPDX-License-Identifier: GPL-3.0\r\npragma solidity 0.8.19;\r\n\r\ncontract Block {\r\n    struct DataElement {\r\n        string functionality;\r\n        string os;\r\n        string language;\r\n        string domain;\r\n        string component;\r\n        bytes32 hash;\r\n    }\r\n    \r\n    mapping(uint256 => DataElement) private dataElements;\r\n    uint256 private currentBlockNumber = 0;\r\n    \r\n    function addDataElement(string memory _functionality, string memory _os, string memory _language, string memory _domain, string memory _component, bytes32 _hash) public {\r\n        DataElement memory newDataElement = DataElement(_functionality, _os, _language, _domain, _component, _hash);\r\n        dataElements[currentBlockNumber] = newDataElement;\r\n        currentBlockNumber++;\r\n    }\r\n    \r\n    function getDataElement(uint256 _blockNumber) public view returns (string memory, string memory, string memory, string memory, string memory, bytes32) {\r\n        DataElement memory retrievedDataElement = dataElements[_blockNumber];\r\n        return (retrievedDataElement.functionality, retrievedDataElement.os, retrievedDataElement.language, retrievedDataElement.domain, retrievedDataElement.component, retrievedDataElement.hash);\r\n    }\r\n    \r\n    function getNumBlocks() public view returns (uint256) {\r\n        return currentBlockNumber;\r\n    }\r\n}",
  "sourcePath": "D:\\Tarun\\Mern stack\\Mini\\web\\contracts\\Block.sol",
  "compiler": {
    "name": "solc",
    "version": "0.8.19+commit.7dd6d404.Emscripten.clang"
  },
  "schemaVersion": "3.4.13",
  "updatedAt": "2023-03-27T09:52:29.735Z",
  "devdoc": {
    "kind": "dev",
    "methods": {},
    "version": 1
  },
  "userdoc": {
    "kind": "user",
    "methods": {},
    "version": 1
  }
}