{
  "contractName": "Blockchain",
  "abi": [
    {
      "inputs": [
        {
          "internalType": "string",
          "name": "_functionality",
          "type": "string"
        },
        {
          "internalType": "string",
          "name": "_os",
          "type": "string"
        },
        {
          "internalType": "string",
          "name": "_language",
          "type": "string"
        },
        {
          "internalType": "string",
          "name": "_domain",
          "type": "string"
        },
        {
          "internalType": "string",
          "name": "_component",
          "type": "string"
        },
        {
          "internalType": "string",
          "name": "date",
          "type": "string"
        },
        {
          "internalType": "string",
          "name": "_fileHash",
          "type": "string"
        },
        {
          "internalType": "string",
          "name": "_transactionHash",
          "type": "string"
        }
      ],
      "name": "makeBlock",
      "outputs": [],
      "stateMutability": "nonpayable",
      "type": "function"
    },
    {
      "inputs": [],
      "name": "getSize",
      "outputs": [
        {
          "internalType": "uint256",
          "name": "",
          "type": "uint256"
        }
      ],
      "stateMutability": "view",
      "type": "function"
    },
    {
      "inputs": [
        {
          "internalType": "uint256",
          "name": "blockNumber",
          "type": "uint256"
        }
      ],
      "name": "getDetails",
      "outputs": [
        {
          "internalType": "string",
          "name": "",
          "type": "string"
        },
        {
          "internalType": "string",
          "name": "",
          "type": "string"
        },
        {
          "internalType": "string",
          "name": "",
          "type": "string"
        },
        {
          "internalType": "string",
          "name": "",
          "type": "string"
        },
        {
          "internalType": "string",
          "name": "",
          "type": "string"
        },
        {
          "internalType": "string",
          "name": "",
          "type": "string"
        },
        {
          "internalType": "string",
          "name": "",
          "type": "string"
        },
        {
          "internalType": "string",
          "name": "",
          "type": "string"
        }
      ],
      "stateMutability": "view",
      "type": "function"
    }
  ],
  "bytecode": "0x6080604052600060015534801561001557600080fd5b5061134c806100256000396000f3fe608060405234801561001057600080fd5b50600436106100415760003560e01c8063394ac4ff14610046578063b93a89f714610062578063de8fa43114610099575b600080fd5b610060600480360381019061005b91906109f9565b6100b7565b005b61007c60048036038101906100779190610bc5565b610134565b604051610090989796959493929190610c71565b60405180910390f35b6100a16106a0565b6040516100ae9190610d36565b60405180910390f35b600080600154116100cb576000801b6100ff565b6000600180546100db9190610d80565b815481106100ec576100eb610db4565b5b90600052602060002090600a0201600901545b905060006101148a8a8a8a8a8a8a8a8a6106ac565b90506101288a8a8a8a8a898989898e61073c565b50505050505050505050565b6060806060806060806060806000805490508910610187576040517f08c379a000000000000000000000000000000000000000000000000000000000815260040161017e90610e2f565b60405180910390fd5b6000808a8154811061019c5761019b610db4565b5b90600052602060002090600a0201604051806101400160405290816000820180546101c690610e7e565b80601f01602080910402602001604051908101604052809291908181526020018280546101f290610e7e565b801561023f5780601f106102145761010080835404028352916020019161023f565b820191906000526020600020905b81548152906001019060200180831161022257829003601f168201915b5050505050815260200160018201805461025890610e7e565b80601f016020809104026020016040519081016040528092919081815260200182805461028490610e7e565b80156102d15780601f106102a6576101008083540402835291602001916102d1565b820191906000526020600020905b8154815290600101906020018083116102b457829003601f168201915b505050505081526020016002820180546102ea90610e7e565b80601f016020809104026020016040519081016040528092919081815260200182805461031690610e7e565b80156103635780601f1061033857610100808354040283529160200191610363565b820191906000526020600020905b81548152906001019060200180831161034657829003601f168201915b5050505050815260200160038201805461037c90610e7e565b80601f01602080910402602001604051908101604052809291908181526020018280546103a890610e7e565b80156103f55780601f106103ca576101008083540402835291602001916103f5565b820191906000526020600020905b8154815290600101906020018083116103d857829003601f168201915b5050505050815260200160048201805461040e90610e7e565b80601f016020809104026020016040519081016040528092919081815260200182805461043a90610e7e565b80156104875780601f1061045c57610100808354040283529160200191610487565b820191906000526020600020905b81548152906001019060200180831161046a57829003601f168201915b505050505081526020016005820180546104a090610e7e565b80601f01602080910402602001604051908101604052809291908181526020018280546104cc90610e7e565b80156105195780601f106104ee57610100808354040283529160200191610519565b820191906000526020600020905b8154815290600101906020018083116104fc57829003601f168201915b5050505050815260200160068201805461053290610e7e565b80601f016020809104026020016040519081016040528092919081815260200182805461055e90610e7e565b80156105ab5780601f10610580576101008083540402835291602001916105ab565b820191906000526020600020905b81548152906001019060200180831161058e57829003601f168201915b505050505081526020016007820180546105c490610e7e565b80601f01602080910402602001604051908101604052809291908181526020018280546105f090610e7e565b801561063d5780601f106106125761010080835404028352916020019161063d565b820191906000526020600020905b81548152906001019060200180831161062057829003601f168201915b50505050508152602001600882015481526020016009820154815250509050806000015181602001518260400151836060015184608001518560a001518660c001518760e001519850985098509850985098509850985050919395975091939597565b60008080549050905090565b600060028a8a8a8a8a8a8a8a8a6040516020016106d199989796959493929190610f16565b6040516020818303038152906040526040516106ed9190610fe0565b602060405180830381855afa15801561070a573d6000803e3d6000fd5b5050506040513d601f19601f8201168201806040525081019061072d9190611023565b90509998505050505050505050565b60006040518061014001604052808c81526020018b81526020018a815260200189815260200188815260200183815260200187815260200186815260200185815260200184815250905060008190806001815401808255809150506001900390600052602060002090600a020160009091909190915060008201518160000190816107c791906111fc565b5060208201518160010190816107dd91906111fc565b5060408201518160020190816107f391906111fc565b50606082015181600301908161080991906111fc565b50608082015181600401908161081f91906111fc565b5060a082015181600501908161083591906111fc565b5060c082015181600601908161084b91906111fc565b5060e082015181600701908161086191906111fc565b506101008201518160080155610120820151816009015550506001600081548092919061088d906112ce565b91905055505050505050505050505050565b6000604051905090565b600080fd5b600080fd5b600080fd5b600080fd5b6000601f19601f8301169050919050565b7f4e487b7100000000000000000000000000000000000000000000000000000000600052604160045260246000fd5b610906826108bd565b810181811067ffffffffffffffff82111715610925576109246108ce565b5b80604052505050565b600061093861089f565b905061094482826108fd565b919050565b600067ffffffffffffffff821115610964576109636108ce565b5b61096d826108bd565b9050602081019050919050565b82818337600083830152505050565b600061099c61099784610949565b61092e565b9050828152602081018484840111156109b8576109b76108b8565b5b6109c384828561097a565b509392505050565b600082601f8301126109e0576109df6108b3565b5b81356109f0848260208601610989565b91505092915050565b600080600080600080600080610100898b031215610a1a57610a196108a9565b5b600089013567ffffffffffffffff811115610a3857610a376108ae565b5b610a448b828c016109cb565b985050602089013567ffffffffffffffff811115610a6557610a646108ae565b5b610a718b828c016109cb565b975050604089013567ffffffffffffffff811115610a9257610a916108ae565b5b610a9e8b828c016109cb565b965050606089013567ffffffffffffffff811115610abf57610abe6108ae565b5b610acb8b828c016109cb565b955050608089013567ffffffffffffffff811115610aec57610aeb6108ae565b5b610af88b828c016109cb565b94505060a089013567ffffffffffffffff811115610b1957610b186108ae565b5b610b258b828c016109cb565b93505060c089013567ffffffffffffffff811115610b4657610b456108ae565b5b610b528b828c016109cb565b92505060e089013567ffffffffffffffff811115610b7357610b726108ae565b5b610b7f8b828c016109cb565b9150509295985092959890939650565b6000819050919050565b610ba281610b8f565b8114610bad57600080fd5b50565b600081359050610bbf81610b99565b92915050565b600060208284031215610bdb57610bda6108a9565b5b6000610be984828501610bb0565b91505092915050565b600081519050919050565b600082825260208201905092915050565b60005b83811015610c2c578082015181840152602081019050610c11565b60008484015250505050565b6000610c4382610bf2565b610c4d8185610bfd565b9350610c5d818560208601610c0e565b610c66816108bd565b840191505092915050565b6000610100820190508181036000830152610c8c818b610c38565b90508181036020830152610ca0818a610c38565b90508181036040830152610cb48189610c38565b90508181036060830152610cc88188610c38565b90508181036080830152610cdc8187610c38565b905081810360a0830152610cf08186610c38565b905081810360c0830152610d048185610c38565b905081810360e0830152610d188184610c38565b90509998505050505050505050565b610d3081610b8f565b82525050565b6000602082019050610d4b6000830184610d27565b92915050565b7f4e487b7100000000000000000000000000000000000000000000000000000000600052601160045260246000fd5b6000610d8b82610b8f565b9150610d9683610b8f565b9250828203905081811115610dae57610dad610d51565b5b92915050565b7f4e487b7100000000000000000000000000000000000000000000000000000000600052603260045260246000fd5b7f426c6f636b206e756d626572206973206f7574206f662072616e676500000000600082015250565b6000610e19601c83610bfd565b9150610e2482610de3565b602082019050919050565b60006020820190508181036000830152610e4881610e0c565b9050919050565b7f4e487b7100000000000000000000000000000000000000000000000000000000600052602260045260246000fd5b60006002820490506001821680610e9657607f821691505b602082108103610ea957610ea8610e4f565b5b50919050565b600081905092915050565b6000610ec582610bf2565b610ecf8185610eaf565b9350610edf818560208601610c0e565b80840191505092915050565b6000819050919050565b6000819050919050565b610f10610f0b82610eeb565b610ef5565b82525050565b6000610f22828c610eba565b9150610f2e828b610eba565b9150610f3a828a610eba565b9150610f468289610eba565b9150610f528288610eba565b9150610f5e8287610eba565b9150610f6a8286610eba565b9150610f768285610eba565b9150610f828284610eff565b6020820191508190509a9950505050505050505050565b600081519050919050565b600081905092915050565b6000610fba82610f99565b610fc48185610fa4565b9350610fd4818560208601610c0e565b80840191505092915050565b6000610fec8284610faf565b915081905092915050565b61100081610eeb565b811461100b57600080fd5b50565b60008151905061101d81610ff7565b92915050565b600060208284031215611039576110386108a9565b5b60006110478482850161100e565b91505092915050565b60008190508160005260206000209050919050565b60006020601f8301049050919050565b600082821b905092915050565b6000600883026110b27fffffffffffffffffffffffffffffffffffffffffffffffffffffffffffffffff82611075565b6110bc8683611075565b95508019841693508086168417925050509392505050565b6000819050919050565b60006110f96110f46110ef84610b8f565b6110d4565b610b8f565b9050919050565b6000819050919050565b611113836110de565b61112761111f82611100565b848454611082565b825550505050565b600090565b61113c61112f565b61114781848461110a565b505050565b5b8181101561116b57611160600082611134565b60018101905061114d565b5050565b601f8211156111b05761118181611050565b61118a84611065565b81016020851015611199578190505b6111ad6111a585611065565b83018261114c565b50505b505050565b600082821c905092915050565b60006111d3600019846008026111b5565b1980831691505092915050565b60006111ec83836111c2565b9150826002028217905092915050565b61120582610bf2565b67ffffffffffffffff81111561121e5761121d6108ce565b5b6112288254610e7e565b61123382828561116f565b600060209050601f8311600181146112665760008415611254578287015190505b61125e85826111e0565b8655506112c6565b601f19841661127486611050565b60005b8281101561129c57848901518255600182019150602085019450602081019050611277565b868310156112b957848901516112b5601f8916826111c2565b8355505b6001600288020188555050505b505050505050565b60006112d982610b8f565b91507fffffffffffffffffffffffffffffffffffffffffffffffffffffffffffffffff820361130b5761130a610d51565b5b60018201905091905056fea2646970667358221220e675eb228aa7bd2e2d4a5bae396b6c54c1a23af3cdb54eacea567cff70b2fcc464736f6c63430008130033",
  "immutableReferences": {},
  "source": "// SPDX-License-Identifier: GPL-3.0\r\npragma solidity 0.8.19;\r\n\r\n// import \"https://github.com/OpenZeppelin/openzeppelin-contracts/blob/master/contracts/utils/cryptography/SHA256.sol\";\r\n\r\ncontract Blockchain {\r\n    // using SHA256 for bytes;\r\n\r\n    struct Block {\r\n        string functionality;\r\n        string os;\r\n        string language;\r\n        string domain;\r\n        string component;\r\n        string date;\r\n        string fileHash;\r\n        string transactionHash;\r\n        bytes32 prevHash;\r\n        bytes32 blockHash;\r\n    }\r\n\r\n    Block[] private blockchain;\r\n    uint256 private blockNo = 0;\r\n\r\n    function makeBlock(string memory _functionality, string memory _os, string memory _language, string memory _domain, string memory _component,string memory date, string memory _fileHash,string memory _transactionHash) public {\r\n        bytes32 _prevHash = blockNo > 0 ? blockchain[blockNo - 1].blockHash : bytes32(0);\r\n        bytes32 blockHash = makeHash(_functionality,_os,_language,_domain,_component,date,_fileHash,_transactionHash,_prevHash);\r\n        makeChain(_functionality,_os,_language,_domain,_component,_fileHash,_transactionHash,_prevHash, blockHash,date);\r\n        \r\n        \r\n    }\r\n\r\n    function makeChain(string memory _functionality, string memory _os, string memory _language, string memory _domain, string memory _component, string memory _fileHash,string memory _transactionHash, bytes32 prevHash, bytes32 blockHash,string memory date) private {\r\n        Block memory newBlock = Block(_functionality,_os,_language,_domain,_component,date,_fileHash,_transactionHash, prevHash,blockHash);\r\n        blockchain.push(newBlock);\r\n        blockNo++;\r\n    }\r\n\r\n    function makeHash(string memory _functionality, string memory _os, string memory _language, string memory _domain, string memory _component,string memory date, string memory  _fileHash,string memory _transactionHash, bytes32 prevHash) private pure returns (bytes32) {\r\n        return sha256(abi.encodePacked(_functionality,_os,_language,_domain,_component,date,_fileHash,_transactionHash, prevHash));\r\n    }\r\n\r\n    function getSize() public view returns (uint256) {\r\n        return blockchain.length;\r\n    }\r\n\r\n    function getDetails(uint256 blockNumber) public view returns (string memory,string memory,string memory,string memory,string memory ,string memory, string memory,string memory) {\r\n        require(blockNumber < blockchain.length, \"Block number is out of range\");\r\n        Block memory blockData = blockchain[blockNumber];\r\n        return (blockData.functionality,blockData.os,blockData.language,blockData.domain,blockData.component,blockData.date,blockData.fileHash,blockData.transactionHash);\r\n    }\r\n}",
  "sourcePath": "D:\\Tarun\\Mern stack\\Mini\\SmartContract\\contracts\\Blockchain.sol",
  "compiler": {
    "name": "solc",
    "version": "0.8.19+commit.7dd6d404.Emscripten.clang"
  },
  "schemaVersion": "3.4.13",
  "updatedAt": "2023-05-01T15:13:52.973Z",
  "devdoc": {
    "kind": "dev",
    "methods": {},
    "version": 1
  },
  "userdoc": {
    "kind": "user",
    "methods": {},
    "version": 1
  }
}