{
  "contractName": "Blockchain",
  "abi": [
    {
      "inputs": [
        {
          "internalType": "string",
          "name": "_functionality",
          "type": "string"
        },
        {
          "internalType": "string",
          "name": "_os",
          "type": "string"
        },
        {
          "internalType": "string",
          "name": "_language",
          "type": "string"
        },
        {
          "internalType": "string",
          "name": "_domain",
          "type": "string"
        },
        {
          "internalType": "string",
          "name": "_component",
          "type": "string"
        },
        {
          "internalType": "string",
          "name": "date",
          "type": "string"
        },
        {
          "internalType": "bytes32",
          "name": "_fileHash",
          "type": "bytes32"
        },
        {
          "internalType": "bytes32",
          "name": "_transactionHash",
          "type": "bytes32"
        }
      ],
      "name": "makeBlock",
      "outputs": [],
      "stateMutability": "nonpayable",
      "type": "function"
    },
    {
      "inputs": [],
      "name": "getSize",
      "outputs": [
        {
          "internalType": "uint256",
          "name": "",
          "type": "uint256"
        }
      ],
      "stateMutability": "view",
      "type": "function",
      "constant": true
    },
    {
      "inputs": [
        {
          "internalType": "uint256",
          "name": "blockNumber",
          "type": "uint256"
        }
      ],
      "name": "getDetails",
      "outputs": [
        {
          "internalType": "string",
          "name": "",
          "type": "string"
        },
        {
          "internalType": "string",
          "name": "",
          "type": "string"
        },
        {
          "internalType": "string",
          "name": "",
          "type": "string"
        },
        {
          "internalType": "string",
          "name": "",
          "type": "string"
        },
        {
          "internalType": "string",
          "name": "",
          "type": "string"
        },
        {
          "internalType": "string",
          "name": "",
          "type": "string"
        },
        {
          "internalType": "bytes32",
          "name": "",
          "type": "bytes32"
        },
        {
          "internalType": "bytes32",
          "name": "",
          "type": "bytes32"
        }
      ],
      "stateMutability": "view",
      "type": "function",
      "constant": true
    }
  ],
  "bytecode": "0x6080604052600060015534801561001557600080fd5b5061120a806100256000396000f3fe608060405234801561001057600080fd5b50600436106100415760003560e01c8063178115d314610046578063b93a89f714610062578063de8fa43114610099575b600080fd5b610060600480360381019061005b9190610907565b6100b7565b005b61007c60048036038101906100779190610a9b565b610134565b604051610090989796959493929190610b56565b60405180910390f35b6100a1610590565b6040516100ae9190610c0d565b60405180910390f35b600080600154116100cb576000801b6100ff565b6000600180546100db9190610c57565b815481106100ec576100eb610c8b565b5b90600052602060002090600a0201600901545b905060006101148a8a8a8a8a8a8a8a8a61059c565b90506101288a8a8a8a8a898989898e61062c565b50505050505050505050565b6060806060806060806000806000805490508910610187576040517f08c379a000000000000000000000000000000000000000000000000000000000815260040161017e90610d06565b60405180910390fd5b6000808a8154811061019c5761019b610c8b565b5b90600052602060002090600a0201604051806101400160405290816000820180546101c690610d55565b80601f01602080910402602001604051908101604052809291908181526020018280546101f290610d55565b801561023f5780601f106102145761010080835404028352916020019161023f565b820191906000526020600020905b81548152906001019060200180831161022257829003601f168201915b5050505050815260200160018201805461025890610d55565b80601f016020809104026020016040519081016040528092919081815260200182805461028490610d55565b80156102d15780601f106102a6576101008083540402835291602001916102d1565b820191906000526020600020905b8154815290600101906020018083116102b457829003601f168201915b505050505081526020016002820180546102ea90610d55565b80601f016020809104026020016040519081016040528092919081815260200182805461031690610d55565b80156103635780601f1061033857610100808354040283529160200191610363565b820191906000526020600020905b81548152906001019060200180831161034657829003601f168201915b5050505050815260200160038201805461037c90610d55565b80601f01602080910402602001604051908101604052809291908181526020018280546103a890610d55565b80156103f55780601f106103ca576101008083540402835291602001916103f5565b820191906000526020600020905b8154815290600101906020018083116103d857829003601f168201915b5050505050815260200160048201805461040e90610d55565b80601f016020809104026020016040519081016040528092919081815260200182805461043a90610d55565b80156104875780601f1061045c57610100808354040283529160200191610487565b820191906000526020600020905b81548152906001019060200180831161046a57829003601f168201915b505050505081526020016005820180546104a090610d55565b80601f01602080910402602001604051908101604052809291908181526020018280546104cc90610d55565b80156105195780601f106104ee57610100808354040283529160200191610519565b820191906000526020600020905b8154815290600101906020018083116104fc57829003601f168201915b505050505081526020016006820154815260200160078201548152602001600882015481526020016009820154815250509050806000015181602001518260400151836060015184608001518560a001518660c001518760e001519850985098509850985098509850985050919395975091939597565b60008080549050905090565b600060028a8a8a8a8a8a8a8a8a6040516020016105c199989796959493929190610de3565b6040516020818303038152906040526040516105dd9190610eb5565b602060405180830381855afa1580156105fa573d6000803e3d6000fd5b5050506040513d601f19601f8201168201806040525081019061061d9190610ee1565b90509998505050505050505050565b60006040518061014001604052808c81526020018b81526020018a815260200189815260200188815260200183815260200187815260200186815260200185815260200184815250905060008190806001815401808255809150506001900390600052602060002090600a020160009091909190915060008201518160000190816106b791906110ba565b5060208201518160010190816106cd91906110ba565b5060408201518160020190816106e391906110ba565b5060608201518160030190816106f991906110ba565b50608082015181600401908161070f91906110ba565b5060a082015181600501908161072591906110ba565b5060c0820151816006015560e08201518160070155610100820151816008015561012082015181600901555050600160008154809291906107659061118c565b91905055505050505050505050505050565b6000604051905090565b600080fd5b600080fd5b600080fd5b600080fd5b6000601f19601f8301169050919050565b7f4e487b7100000000000000000000000000000000000000000000000000000000600052604160045260246000fd5b6107de82610795565b810181811067ffffffffffffffff821117156107fd576107fc6107a6565b5b80604052505050565b6000610810610777565b905061081c82826107d5565b919050565b600067ffffffffffffffff82111561083c5761083b6107a6565b5b61084582610795565b9050602081019050919050565b82818337600083830152505050565b600061087461086f84610821565b610806565b9050828152602081018484840111156108905761088f610790565b5b61089b848285610852565b509392505050565b600082601f8301126108b8576108b761078b565b5b81356108c8848260208601610861565b91505092915050565b6000819050919050565b6108e4816108d1565b81146108ef57600080fd5b50565b600081359050610901816108db565b92915050565b600080600080600080600080610100898b03121561092857610927610781565b5b600089013567ffffffffffffffff81111561094657610945610786565b5b6109528b828c016108a3565b985050602089013567ffffffffffffffff81111561097357610972610786565b5b61097f8b828c016108a3565b975050604089013567ffffffffffffffff8111156109a05761099f610786565b5b6109ac8b828c016108a3565b965050606089013567ffffffffffffffff8111156109cd576109cc610786565b5b6109d98b828c016108a3565b955050608089013567ffffffffffffffff8111156109fa576109f9610786565b5b610a068b828c016108a3565b94505060a089013567ffffffffffffffff811115610a2757610a26610786565b5b610a338b828c016108a3565b93505060c0610a448b828c016108f2565b92505060e0610a558b828c016108f2565b9150509295985092959890939650565b6000819050919050565b610a7881610a65565b8114610a8357600080fd5b50565b600081359050610a9581610a6f565b92915050565b600060208284031215610ab157610ab0610781565b5b6000610abf84828501610a86565b91505092915050565b600081519050919050565b600082825260208201905092915050565b60005b83811015610b02578082015181840152602081019050610ae7565b60008484015250505050565b6000610b1982610ac8565b610b238185610ad3565b9350610b33818560208601610ae4565b610b3c81610795565b840191505092915050565b610b50816108d1565b82525050565b6000610100820190508181036000830152610b71818b610b0e565b90508181036020830152610b85818a610b0e565b90508181036040830152610b998189610b0e565b90508181036060830152610bad8188610b0e565b90508181036080830152610bc18187610b0e565b905081810360a0830152610bd58186610b0e565b9050610be460c0830185610b47565b610bf160e0830184610b47565b9998505050505050505050565b610c0781610a65565b82525050565b6000602082019050610c226000830184610bfe565b92915050565b7f4e487b7100000000000000000000000000000000000000000000000000000000600052601160045260246000fd5b6000610c6282610a65565b9150610c6d83610a65565b9250828203905081811115610c8557610c84610c28565b5b92915050565b7f4e487b7100000000000000000000000000000000000000000000000000000000600052603260045260246000fd5b7f426c6f636b206e756d626572206973206f7574206f662072616e676500000000600082015250565b6000610cf0601c83610ad3565b9150610cfb82610cba565b602082019050919050565b60006020820190508181036000830152610d1f81610ce3565b9050919050565b7f4e487b7100000000000000000000000000000000000000000000000000000000600052602260045260246000fd5b60006002820490506001821680610d6d57607f821691505b602082108103610d8057610d7f610d26565b5b50919050565b600081905092915050565b6000610d9c82610ac8565b610da68185610d86565b9350610db6818560208601610ae4565b80840191505092915050565b6000819050919050565b610ddd610dd8826108d1565b610dc2565b82525050565b6000610def828c610d91565b9150610dfb828b610d91565b9150610e07828a610d91565b9150610e138289610d91565b9150610e1f8288610d91565b9150610e2b8287610d91565b9150610e378286610dcc565b602082019150610e478285610dcc565b602082019150610e578284610dcc565b6020820191508190509a9950505050505050505050565b600081519050919050565b600081905092915050565b6000610e8f82610e6e565b610e998185610e79565b9350610ea9818560208601610ae4565b80840191505092915050565b6000610ec18284610e84565b915081905092915050565b600081519050610edb816108db565b92915050565b600060208284031215610ef757610ef6610781565b5b6000610f0584828501610ecc565b91505092915050565b60008190508160005260206000209050919050565b60006020601f8301049050919050565b600082821b905092915050565b600060088302610f707fffffffffffffffffffffffffffffffffffffffffffffffffffffffffffffffff82610f33565b610f7a8683610f33565b95508019841693508086168417925050509392505050565b6000819050919050565b6000610fb7610fb2610fad84610a65565b610f92565b610a65565b9050919050565b6000819050919050565b610fd183610f9c565b610fe5610fdd82610fbe565b848454610f40565b825550505050565b600090565b610ffa610fed565b611005818484610fc8565b505050565b5b818110156110295761101e600082610ff2565b60018101905061100b565b5050565b601f82111561106e5761103f81610f0e565b61104884610f23565b81016020851015611057578190505b61106b61106385610f23565b83018261100a565b50505b505050565b600082821c905092915050565b600061109160001984600802611073565b1980831691505092915050565b60006110aa8383611080565b9150826002028217905092915050565b6110c382610ac8565b67ffffffffffffffff8111156110dc576110db6107a6565b5b6110e68254610d55565b6110f182828561102d565b600060209050601f8311600181146111245760008415611112578287015190505b61111c858261109e565b865550611184565b601f19841661113286610f0e565b60005b8281101561115a57848901518255600182019150602085019450602081019050611135565b868310156111775784890151611173601f891682611080565b8355505b6001600288020188555050505b505050505050565b600061119782610a65565b91507fffffffffffffffffffffffffffffffffffffffffffffffffffffffffffffffff82036111c9576111c8610c28565b5b60018201905091905056fea26469706673582212208a88ce9b83eeffadcd7c4c58705375d96d67a05aa3a14c96e5a1b66a2a5dfaf364736f6c63430008130033",
  "immutableReferences": {},
  "source": "// SPDX-License-Identifier: GPL-3.0\r\npragma solidity 0.8.19;\r\n\r\n// import \"https://github.com/OpenZeppelin/openzeppelin-contracts/blob/master/contracts/utils/cryptography/SHA256.sol\";\r\n\r\ncontract Blockchain {\r\n    // using SHA256 for bytes;\r\n\r\n    struct Block {\r\n        string functionality;\r\n        string os;\r\n        string language;\r\n        string domain;\r\n        string component;\r\n        string date;\r\n        bytes32 fileHash;\r\n        bytes32 transactionHash;\r\n        bytes32 prevHash;\r\n        bytes32 blockHash;\r\n    }\r\n\r\n    Block[] private blockchain;\r\n    uint256 private blockNo = 0;\r\n\r\n    function makeBlock(string memory _functionality, string memory _os, string memory _language, string memory _domain, string memory _component,string memory date, bytes32 _fileHash,bytes32 _transactionHash) public {\r\n        bytes32 _prevHash = blockNo > 0 ? blockchain[blockNo - 1].blockHash : bytes32(0);\r\n        bytes32 blockHash = makeHash(_functionality,_os,_language,_domain,_component,date,_fileHash,_transactionHash,_prevHash);\r\n        makeChain(_functionality,_os,_language,_domain,_component,_fileHash,_transactionHash,_prevHash, blockHash,date);\r\n        \r\n        \r\n    }\r\n\r\n    function makeChain(string memory _functionality, string memory _os, string memory _language, string memory _domain, string memory _component, bytes32 _fileHash,bytes32 _transactionHash, bytes32 prevHash, bytes32 blockHash,string memory date) private {\r\n        Block memory newBlock = Block(_functionality,_os,_language,_domain,_component,date,_fileHash,_transactionHash, prevHash,blockHash);\r\n        blockchain.push(newBlock);\r\n        blockNo++;\r\n    }\r\n\r\n    function makeHash(string memory _functionality, string memory _os, string memory _language, string memory _domain, string memory _component,string memory date, bytes32 _fileHash,bytes32 _transactionHash, bytes32 prevHash) private pure returns (bytes32) {\r\n        return sha256(abi.encodePacked(_functionality,_os,_language,_domain,_component,date,_fileHash,_transactionHash, prevHash));\r\n    }\r\n\r\n    function getSize() public view returns (uint256) {\r\n        return blockchain.length;\r\n    }\r\n\r\n    function getDetails(uint256 blockNumber) public view returns (string memory,string memory,string memory,string memory,string memory ,string memory, bytes32,bytes32) {\r\n        require(blockNumber < blockchain.length, \"Block number is out of range\");\r\n        Block memory blockData = blockchain[blockNumber];\r\n        return (blockData.functionality,blockData.os,blockData.language,blockData.domain,blockData.component,blockData.date,blockData.fileHash,blockData.transactionHash);\r\n    }\r\n}",
  "sourcePath": "D:\\Tarun\\Mern stack\\Mini\\web\\contracts\\Blockchain.sol",
  "compiler": {
    "name": "solc",
    "version": "0.8.19+commit.7dd6d404.Emscripten.clang"
  },
  "schemaVersion": "3.4.13",
  "updatedAt": "2023-03-29T18:15:26.567Z",
  "networkType": "ethereum",
  "devdoc": {
    "kind": "dev",
    "methods": {},
    "version": 1
  },
  "userdoc": {
    "kind": "user",
    "methods": {},
    "version": 1
  }
}